:100000000C944C000C946B000C946B000C946B00E3
:100010000C946B000C946B000C946B000C946B00B4
:100020000C946B000C946B000C943C0D0C94F60D2E
:100030000C946B000C9438020C94AF020C946B007F
:100040000C946B000C946B000C946B000C946B0084
:100050000C946B000C9496030C946B000C946B0046
:100060000C946B000C946B000C946B000C946B0064
:100070000C946B000C946B000C946B000C946B0054
:100080000C946B000C946B000C946B000C946B0044
:100090000C946B000C946B0011241FBECFEFD0E2C8
:1000A000DEBFCDBF15E1A0E0B1E0EEEEFCE200E086
:1000B0000BBF02C007900D92AA32B107D9F72EE10B
:1000C000AAE2B5E101C01D92A834B207E1F70E948F
:1000D0006D000C9475160C940000CF93DF93CDB790
:1000E000DEB7F89481E690E020E8FC01208381E609
:1000F00090E0FC0110828AE290E0FC0120818AE21B
:1001000090E0206FFC0120838BE290E0FC012081D5
:100110008BE290E02F7EFC01208384E290E0FC01E2
:10012000208184E290E02061FC0120830E941E0275
:1001300080E00E94D60B78940E94A30080E090E0BB
:10014000DF91CF910895CF93DF93CDB7DEB789EEDE
:1001500090E0FC01108280EF90E0FC01108288EEBC
:1001600090E0FC018081882F90E088709927892B8E
:1001700039F185E290E0FC01208185E290E0206287
:10018000FC0120838BE290E0FC0120818BE290E077
:100190002064FC0120830E945C118BE290E0FC0152
:1001A00020818BE290E02F7BFC01208385E290E0B0
:1001B000FC01208185E290E02F7DFC01208329C095
:1001C00088EE90E0FC018081882F90E08071992773
:1001D000892B51F088EE90E0FC01208188EE90E0C0
:1001E0002F7EFC01208315C088EE90E0FC01808109
:1001F000882F90E082709927892B09F4A8CF88EE88
:1002000090E0FC01208188EE90E02D7FFC012083AE
:1002100000009DCFCF93DF93CDB7DEB780EB90E0AA
:10022000FC01208180EB90E02C7FFC01208381EB9E
:1002300090E0FC01208181EB90E0277FFC0120838E
:100240000000DF91CF910895CF93DF9300D000D0CD
:100250001F92CDB7DEB780E790E0FC018081882F48
:1002600090E08270992721E0892B09F420E029830E
:1002700080E790E0FC01208180E790E02D7FFC0189
:10028000208380913C1D90913D1DA0913E1DB09119
:100290003F1D8A839B83AC83BD838981882349F07A
:1002A00080E790E0FC01208180E790E02260FC0183
:1002B00020838A819B81AC81BD81BC01CD010F90DF
:1002C0000F900F900F900F90DF91CF910895EF92C4
:1002D000FF920F931F93CF93DF9300D000D0CDB741
:1002E000DEB769837A838B839C830E9424019B0100
:1002F000AC0189819A81AB81BC8179018A01E81ABC
:10030000F90A0A0B1B0BD801C701BC01CD010F90E4
:100310000F900F900F90DF91CF911F910F91FF9051
:10032000EF900895CF93DF931F92CDB7DEB7898307
:100330000E940A0180EB90E0FC018081982F898166
:100340008370292F282B80EB90E0FC01208389818A
:10035000882F90E084709927892B51F481EB90E0ED
:10036000FC01208181EB90E0277FFC01208309C004
:1003700081EB90E0FC01208181EB90E02860FC01A2
:10038000208300000F90DF91CF910895CF93DF93EA
:10039000CDB7DEB781EB90E0FC01108280EB90E0FE
:1003A000FC01108282EB90E0FC01108283EB90E074
:1003B000FC01108284EB90E0FC01108286EB90E05F
:1003C000FC01108280E790E0FC01108287E390E05E
:1003D000FC01108210923B1D0000DF91CF91089527
:1003E000CF93DF93CDB7DEB780EB90E0FC01808147
:1003F000282F207C80EB90E0FC018081282B80EB73
:1004000090E0FC0120830000DF91CF910895CF930D
:10041000DF93CDB7DEB781EB90E0FC018081282F20
:10042000207F81EB90E0FC018081282B81EB90E024
:10043000FC0120830000DF91CF910895CF93DF93DB
:10044000CDB7DEB70E94C6010E94F0010E940702EC
:1004500082E00E94920181EB90E0FC01208181EB1F
:1004600090E02360FC0120830000DF91CF9108958C
:100470001F920F920FB60F9211240BB60F922F936B
:100480003F934F935F936F937F938F939F93AF931C
:10049000BF93EF93FF93CF93DF93CDB7DEB787E39F
:1004A00090E0FC01208187E390E02260FC01208342
:1004B00080913C1D90913D1DA0913E1DB0913F1D2E
:1004C0000196A11DB11D80933C1D90933D1DA093ED
:1004D0003E1DB0933F1D80913B1D882351F18091BB
:1004E0003C1D90913D1DA0913E1DB0913F1D28ECFB
:1004F00030E040E050E0BC01CD010E943A16DC0142
:10050000CB01892B8A2B8B2BA1F48BE290E0FC0191
:1005100030818BE290E020E12327FC0120838BE2F5
:1005200090E0FC0130818BE290E020E82327FC0181
:1005300020830000DF91CF91FF91EF91BF91AF91A8
:100540009F918F917F916F915F914F913F912F91EB
:100550000F900BBE0F900FBE0F901F9018951F921B
:100560000F920FB60F9211240BB60F922F938F9309
:100570009F93EF93FF93CF93DF93CDB7DEB787E3DE
:1005800090E0FC01208187E390E02460FC0120835F
:100590000000DF91CF91FF91EF919F918F912F916B
:1005A0000F900BBE0F900FBE0F901F901895CF931A
:1005B000DF93CDB7DEB728970FB6F894DEBF0FBE36
:1005C000CDBF8C837E836D8358874F838C81882F2A
:1005D00090E0019709F09DC08D81882F90E08330D5
:1005E000910501F18430910534F48130910561F079
:1005F000029789F033C08530910511F1853091055E
:10060000C4F0069721F12AC084E0898382E08A83BE
:1006100088E28B8328C085E0898382E08A8384E630
:100620008B8321C086E0898382E08A8388EC8B8378
:100630001AC087E0898383E08A8382E38B8313C0B7
:1006400087E0898383E08A838DE78B830CC087E012
:10065000898383E08A838AEF8B8305C084E091E0FD
:100660000E949D065AC08CE790E020ECFC0120839C
:100670008AE790E02981206CFC01208384E490E0EB
:1006800022E0FC01208385E490E02A81FC012083A4
:1006900087E490E02B81FC0120838F8198859093E3
:1006A0002B1580932A150E9493041092401D84E11B
:1006B0008A8314C000008AE790E0FC018081882FC3
:1006C00090E080749927892BB1F78AE790E0FC01CC
:1006D00020818AE790E02064FC0120838A819FEFDB
:1006E000980F9A83882331F786E490E02B812F5F5F
:1006F000FC0120838EE690E022E0FC01208385E36C
:1007000090E0FC01208185E390E02260FC012083E1
:1007100004C089E291E00E949D0628960FB6F894E5
:10072000DEBF0FBECDBFDF91CF9108951F920F9214
:100730000FB60F9211240BB60F922F933F934F9346
:100740005F936F937F938F939F93AF93BF93EF9339
:10075000FF93CF93DF9300D01F92CDB7DEB78AE728
:1007600090E0FC018081882F90E080749927892B8C
:1007700019F083E08093401D88E790E0FC018081C0
:1007800091819B838A838AE790E0FC0120818AE73C
:1007900090E02064FC01208380912A1590912B1514
:1007A000892B09F18091451D9091461D811594403A
:1007B00021F481E08093401D16C08091401D882364
:1007C00029F48A819B810E94D70404C08FEF9FEF98
:1007D0000E94D70480912A1590912B150197909330
:1007E0002B1580932A1589EE90E022E0FC012083EE
:1007F00088EE90E0FC018081882F90E0817099273D
:10080000892B09F467C080912A1590912B15892BAB
:1008100069F48091451D9091461D892B39F48EE62F
:1008200090E0FC01108280E4898305C082EF90E0B3
:10083000FC01808189838981882F90E08E33910526
:10084000C9F08034910599F10E94AB049B838A839F
:100850009E012E5F3F4F81EF90E0F9012081FC0166
:100860002083CE010296019621EF30E0FC018081C9
:10087000F90180838091451D9091461D892B61F17E
:100880000E94AB049B838A839E012E5F3F4F81EFC2
:1008900090E0F9012081FC012083CE0102960196AF
:1008A00021EF30E0FC018081F901808315C088EEE2
:1008B00090E0FC01208188EE90E02E7FFC012083F7
:1008C00088EE90E0FC01208188EE90E02F77FC011B
:1008D000208303C0000001C0000085E390E0FC011C
:1008E0008081882F90E082709927892B19F082E00F
:1008F0008093401D00000F900F900F90DF91CF91DB
:10090000FF91EF91BF91AF919F918F917F916F91E7
:100910005F914F913F912F910F900BBE0F900FBEA3
:100920000F901F901895CF93DF93CDB7DEB78CE271
:1009300095E19093441D8093431D8CE295E1909343
:10094000421D8093411D1092461D1092451D0000CE
:10095000DF91CF910895CF93DF93CDB7DEB780912C
:10096000451D9091461D01979093461D8093451D0E
:100970008091431D9091441D8A529D4139F030F081
:100980008CE295E19093441D8093431D8091431D1B
:100990009091441D9C012E5F3F4F3093441D209346
:1009A000431DFC0180819181DF91CF910895CF9308
:1009B000DF9300D0CDB7DEB79A8389838091451D40
:1009C0009091461D01969093461D8093451D809100
:1009D000411D9091421D8A529D4139F030F08CE2C8
:1009E00095E19093421D8093411D8091411D90910E
:1009F000421D9C012E5F3F4F3093421D2093411DAD
:100A000029813A81FC013183208300000F900F90EF
:100A1000DF91CF910895CF93DF9300D0CDB7DEB7AC
:100A20009A8389838DE491E00E949D0684E691E09B
:100A30000E949D0689819A81FC0180810E943D0669
:100A400085E791E00E949D0689819A81FC01818160
:100A50000E943D068EE891E00E949D0689819A8160
:100A6000FC01828193810E9484068EE991E00E94BC
:100A70009D0689819A81FC0184810E943D0684EB58
:100A800091E00E949D0689819A81FC0185810E94E6
:100A90003D068DEC91E00E949D0689819A81FC01C2
:100AA00086810E943D0687EE91E00E949D06898125
:100AB0009A81FC0187810E943D0680E092E00E94BD
:100AC0009D0689819A81FC01808591850E9484061A
:100AD00082E192E00E949D0689819A81FC018285D3
:100AE00093850E94840685E292E00E949D0689819A
:100AF0009A81FC01848595850E94840688E392E0B2
:100B00000E949D0689819A81FC0186850E943D068E
:100B10008FE492E00E949D0689819A81FC0187857D
:100B20000E943D0681E692E00E949D0689819A819D
:100B3000FC0180890E943D0688E792E00E949D06A4
:100B400089819A81FC0181890E943D060E94BC0630
:100B500000000F900F90DF91CF910895CF93DF9316
:100B600000D01F92CDB7DEB79B838A838A819B8199
:100B7000FC01808189838EE595E00E949D060BC073
:100B80008A819B819C012F5F3F4F3B832A83FC011D
:100B900080810E943D0689819FEF980F9983882369
:100BA00079F70E94BC0600000F900F900F90DF9124
:100BB000CF910895CF93DF9300D0CDB7DEB79A835E
:100BC000898387E795E00E949D0686E895E00E946C
:100BD0009D0689819A81FC0180810E943D068AE9F7
:100BE00095E00E949D0689819A81FC0181810E9485
:100BF0003D068EEA95E00E949D0689819A81FC015E
:100C0000828193810E94840682EC95E00E949D0679
:100C100089819A81FC01848195810E94840686EDF8
:100C200095E00E949D0689819A81FC0186819781C9
:100C30000E9484060E94BC0600000F900F90DF9176
:100C4000CF910895CF93DF931F92CDB7DEB78983FD
:100C5000000088EC90E0FC018081882F90E0807299
:100C60009927892BB1F38EEC90E02981FC01208338
:100C700000000F90DF91CF910895CF93DF9300D0C4
:100C8000CDB7DEB78A838A8182958F708983898107
:100C90008A3020F48981805D898303C08981895CE1
:100CA0008983000088EC90E0FC018081882F90E02F
:100CB00080729927892BB1F38EEC90E02981FC0199
:100CC00020838A818F70898389818A3020F4898189
:100CD000805D898303C08981895C8983000088ECF9
:100CE00090E0FC018081882F90E080729927892B09
:100CF000B1F38EEC90E02981FC01208300000F907D
:100D00000F90DF91CF910895CF93DF9300D0CDB7AF
:100D1000DEB79A838983CE010296FC0180810E940E
:100D20003D06CE010196FC0180810E943D06000037
:100D30000F900F90DF91CF910895CF93DF9300D064
:100D4000CDB7DEB79A8389830BC089819A819C01D4
:100D50002F5F3F4F3A832983FC0180810E94220646
:100D600089819A81FC018081882379F700000F90A6
:100D70000F90DF91CF910895CF93DF93CDB7DEB77A
:100D8000000088EC90E0FC018081882F90E0807268
:100D90009927892BB1F38EEC90E02DE0FC012083A4
:100DA000000088EC90E0FC018081882F90E0807248
:100DB0009927892BB1F38EEC90E02AE0FC01208387
:100DC0000000DF91CF910895CF93DF9300D0CDB78E
:100DD000DEB79A83898389819A8122E1FC0120838D
:100DE00089819A8121E0FC01218389819A8120E116
:100DF00031E0FC013383228389819A812FEFFC014A
:100E0000248389819A812FEFFC01258389819A812E
:100E10002FEFFC01268389819A8128E0FC0127833A
:100E200089819A812BEE33E0FC013187208789810B
:100E30009A8121E030E0FC013387228789819A8101
:100E400021E030E0FC013587248789819A8121E007
:100E5000FC01268789819A8122E0FC01278789810C
:100E60009A8123E0FC01208B89819A8121E0FC0199
:100E7000218B00000F900F90DF91CF910895CF93B9
:100E8000DF9300D000D0CDB7DEB79B838A836C831D
:100E90008C81882311F080E087C08A819B8129E0C2
:100EA000FC0120838A819B8122E0FC0121838A81CD
:100EB0009B8129E030E0FC01338322838C81882FE1
:100EC00090E08E5F9A4EFC01808189838A819B81AC
:100ED0002981FC01248345C08A819B81FC014281D8
:100EE00053818C81282F30E08981882F90E0220F58
:100EF000331F220F331F820F931F865E9A4EFC0111
:100F00008081282F30E0C901880F991F880F991F11
:100F1000880F991F821B930B9C01275F3F4F8C8189
:100F2000682F70E08981882F90E0660F771F660F29
:100F3000771F860F971F865F9A4EFC018081882F4E
:100F400090E0289FB001299F700D389F700D1124EB
:100F5000CB019A01280F391F8A819B81FC013383C1
:100F6000228389819FEF980F9983882309F0B4CF5A
:100F70008C8121E0280F8A819B81FC0125838A8155
:100F80009B81FC0116828A819B8120E8FC012783DA
:100F90008C81882F90E08A5F9A4EFC0120818A81A3
:100FA0009B81FC01208781E00F900F900F900F90A4
:100FB000DF91CF910895CF93DF9300D000D01F929F
:100FC000CDB7DEB79A8389836B834C832D838B8166
:100FD0008823E9F48B81882F90E08E5F9A4EFC0184
:100FE00080819C81981798F48B81282F30E08C8128
:100FF000882F90E0220F331F220F331F820F931F81
:10100000865F9A4EFC0180819D81981710F080E0E8
:101010003CC089819A8129E0FC01208389819A81E1
:1010200024E0FC01218389819A812C81FC012283A7
:1010300089819A812D81FC0123838B81282F30E0C7
:101040008C81882F90E0220F331F220F331F820FD5
:10105000931F865E9A4EFC01208189819A81FC0152
:10106000248389819A812FEFFC01258389819A81CC
:101070002FEFFC01268389819A812FEFFC012783C2
:1010800089819A81FC01108681E00F900F900F906A
:101090000F900F90DF91CF9108950F93CF93DF932F
:1010A00000D000D000D0CDB7DEB79A8389836B83A0
:1010B0004C832D830E838B81882381F58B81882F30
:1010C00090E08E5F9A4EFC0180819C81981730F5EC
:1010D0008B81282F30E08C81882F90E0220F331FE6
:1010E000220F331F820F931F865F9A4EFC0180816F
:1010F0009D81981798F48B81282F30E08C81882F60
:1011000090E0220F331F220F331F820F931F865E42
:101110009A4EFC0180819E81891710F480E046C0C0
:1011200089819A8127E0FC01208389819A8125E0C9
:10113000FC01218389819A8122E0FC01238389813A
:101140009A81FC0116828E81882F90E08230910571
:1011500091F083309105E1F0019739F589819A8109
:1011600021E8FC01228389819A8128E030E0FC019A
:10117000358324831AC089819A8122E8FC01228365
:1011800089819A8120E430E0FC01358324830DC0FD
:1011900089819A8123E0FC01228389819A8128E058
:1011A00030E0FC0135832483000081E026960FB6F1
:1011B000F894DEBF0FBECDBFDF91CF910F910895A0
:1011C000CF93DF9300D000D0CDB7DEB79B838A8367
:1011D0006C8386E1898309C08A819B819C012F5F92
:1011E0003F4F3B832A83FC01108289819FEF980F38
:1011F0009983882389F78A819B8146979B838A8379
:101200008A819B81019623E0FC0120838C81882FB9
:1012100090E08130910501F1823091051CF4892B19
:1012200049F09EC08230910509F44CC0039709F43F
:1012300079C096C08A819B8124E0FC0120838A8149
:101240009B81029629E0FC0120838A819B81039681
:1012500024E0FC0120838FC08A819B81029623E5D4
:10126000FC0120838A819B81049621E4FC01208378
:101270008A819B8106962CE4FC0120838A819B81D4
:10128000089625E4FC0120838A819B810A9627E544
:10129000FC0120838A819B810C9623E5FC0120833D
:1012A0008A819B810E962BE4FC0120838A819B819D
:1012B000409629E4FC0120838A819B8122E1FC0184
:1012C000208359C08A819B81029621E4FC012083FE
:1012D0008A819B81049624E5FC0120838A819B817D
:1012E000069629E3FC0120838A819B81089620E3EE
:1012F000FC0120838A819B810A9625E5FC012083DD
:101300008A819B810C9623E5FC0120838A819B8145
:101310000E9622E4FC0120838A819B8120E1FC015E
:10132000208329C08A819B81029620E3FC012083CF
:101330008A819B81049620E3FC0120838A819B8122
:10134000069621E3FC0120838A819B81089621E394
:10135000FC0120838A819B812AE0FC0120830BC051
:101360008A819B8102962FE3FC0120838A819B81E5
:1013700024E0FC01208300000F900F900F900F904D
:10138000DF91CF910895CF93DF931F92CDB7DEB752
:10139000898389EE90E029812770FC0120838BEE00
:1013A00090E0FC0120818BEE90E02E7FFC012083F9
:1013B0008DEE90E0FC0120818DEE90E02D7FFC0110
:1013C000208300000F90DF91CF910895CF93DF939A
:1013D0001F92CDB7DEB710922F1D87E0898303C01F
:1013E00089810E94C30989818150898389818823E9
:1013F000B9F781E080932C1D00000F90DF91CF9111
:101400000895CF93DF9300D0CDB7DEB78A838A816A
:10141000882F90E0009719F0019729F03DC00E94B5
:10142000E60981E03EC080912F1D9A81981789F0CE
:1014300084E0898308C08981882F90E080509F4F85
:101440002FEFFC01208389819FEF980F99838823D8
:1014500091F7198211C040E069818A810E94560A81
:10146000982F81E08927882321F00E94E60980E0F7
:1014700018C089818F5F89838A81882F90E00197C6
:101480008E5F9A4EFC0180819981981720F38A81A2
:1014900080932F1D81E005C08AEE95E00E949D0695
:1014A00080E00F900F90DF91CF9108950F93CF932D
:1014B000DF9300D000D0CDB7DEB78A836B834C8337
:1014C0008A819FEF980F9A83882331F484E296E013
:1014D0000E949D0680E0F4C08A81882F90E08E5F94
:1014E0009A4EFC0180819B81981798F48A81282F5D
:1014F00030E08B81882F90E0220F331F220F331FA3
:10150000820F931F865F9A4EFC0180819C81981701
:1015100030F088E696E00E949D0680E0D1C08C8184
:101520008823B1F08B81282F30E08A81882F90E0CA
:101530008E5F9A4EFC018081882F90E001972817DA
:10154000390731F089E996E00E949D0680E0B8C035
:101550008B81882F90E080509F4FFC0180819C817F
:101560009817C9F58A818823A1F58B81882389F58D
:1015700081E089832BC089EE90E029812770FC01EE
:1015800020838AEE90E0FC018081482F8981282FFA
:1015900030E081E090E002C0880F991F2A95E2F7C1
:1015A000242F282B8AEE90E0FC0120838AEE90E025
:1015B000FC0110828BEE90E0FC0120818BEE90E02C
:1015C0002860FC01208389818F5F89838981843031
:1015D00090F281E075C08A81882309F070C08B8108
:1015E000882309F06CC083E00E94C30982E00E9456
:1015F000C30981E00E94C30981E080932C1D8FEF15
:10160000809300018C81882309F051C001E021E022
:1016100048E050E062E081E00E944F0C8823C1F076
:101620008EE097E00E949D0680EF90E0FC01208113
:1016300080EF90E02064FC01208301E022E040E4A0
:1016400050E062E082E00E944F0C8823B1F006C0B7
:101650008BE297E00E949D0680E032C087E497E02D
:101660000E949D0600E021E048E050E062E083E057
:101670000E944F0C8823A9F006C084E697E00E94E0
:101680009D0680E01DC080E897E00E949D0680EFE7
:1016900090E0FC01208180EF90E02460FC01208339
:1016A00006C08DE997E00E949D0680E009C08C810C
:1016B0008093000181E080932D1D81E001C080E0D6
:1016C0000F900F900F900F90DF91CF910F91089591
:1016D000CF93DF9300D0CDB7DEB79A83898389811A
:1016E0009A81FC014481558189819A81FC01228182
:1016F000338189819A81FC018181B9010E94D702DD
:1017000000000F900F90DF91CF910895CF93DF935A
:10171000CDB7DEB788ED90E020E2FC0120838EEDAE
:1017200090E0FC01108282EE90E0FC01108280EAE1
:1017300090E0FC01108280EF90E0FC0110828EEAC4
:1017400090E0FC01108287ED90E020E8FC0120830E
:101750000000DF91CF910895CF93DF93CDB7DEB72F
:1017600089E490E024E1FC01208389E490E0FC011D
:10177000208189E490E02260FC012083000089E45C
:1017800090E0FC018081882F90E081709927892B5F
:10179000B1F388ED90E0FC01208188ED90E02F7D91
:1017A000FC0120830000DF91CF910895CF93DF9358
:1017B0001F92CDB7DEB789830E94860B87ED90E03C
:1017C00021E8FC01208388ED90E020EBFC012083E0
:1017D00000008981882329F080EE90E024E0FC015C
:1017E000208388ED90E020E9FC01208388ED90E0E3
:1017F00020EBFC01208382EE90E028E1FC012083B5
:101800000E94AC0B80EE90E0FC01208180EE90E025
:101810002E7FFC012083789400000F90DF91CF9100
:1018200008950F93CF93DF93CDB7DEB789EE90E0A5
:10183000FC0110828BEE90E0FC018081882F90E00B
:1018400081709927892B29F089EB97E00E949D06EA
:1018500022C084ED97E00E949D0610922C1D00E0AE
:1018600021E048E050E060E080E00E944F0C8823D7
:1018700029F08CEE97E00E949D0604C089E098E074
:101880000E949D0680EF90E0FC01208180EF90E0B7
:101890002860FC012083DF91CF910F9108950F9371
:1018A000CF93DF93CDB7DEB728970FB6F894DEBF9E
:1018B0000FBECDBF8B836C835E834D832F830887E0
:1018C0008F8181508F838B81873078F48885823037
:1018D00060F48F81823048F48C81843030F48D81C3
:1018E0009E8187709C7F892B11F080E0BBC08D8129
:1018F0009E819695879596958795969587958983E8
:1019000080EE90E0DC018C91882F90E08470992724
:10191000892B59F08C81823031F08C81813019F023
:101920008981823010F080E09DC089818130B9F0DA
:1019300089818230A1F08981843089F08981883061
:1019400071F08981803131F08981803219F089818B
:10195000803419F48C81813011F080E083C08C8157
:10196000882341F48885882319F48F81882311F016
:1019700080E078C08B81882341F48885882319F41E
:101980008C81882361F080E06DC080912C1D9B814B
:10199000981719F48C81882311F480E063C089EED4
:1019A00090E02B812770DC012C938BEE90E0DC0122
:1019B0002C918BEE90E02160DC012C931A8203C005
:1019C0008A818F5F8A83898186958983898188232B
:1019D000B9F78C81882F90E0F82FF695F695E82FCF
:1019E000E295EE0FEE0FE07C9E2F8885292F282BA5
:1019F0008CEE90E0FC0120838A81882F90E0829514
:101A00009295907F9827807F9827282F8F81882F05
:101A100090E0880F991F880F991F282B8DEE90E07A
:101A2000DC012C938DEE90E0FC0120818DEE90E0A6
:101A30002260DC012C938EEE90E0FC0180818823F3
:101A40003CF480912C1D8F5F80932C1D81E00AC097
:101A50008BEE90E0DC012C918BEE90E02E7FFC0170
:101A6000208380E028960FB6F894DEBF0FBECDBF6E
:101A7000DF91CF910F9108951F920F920FB60F92A1
:101A800011240BB60F922F933F934F935F936F9355
:101A90007F938F939F93AF93BF93EF93FF93CF93D6
:101AA000DF93CDB7DEB785E298E00E949D068AED10
:101AB00090E0FC018081882F90E082709927892B2B
:101AC00069F08AED90E0FC0120818AED90E02D7FA5
:101AD000FC01208389E398E00E949D068AED90E056
:101AE000FC018081882F90E081709927892B69F013
:101AF0008AED90E0FC0120818AED90E02E7FFC01D0
:101B000020838CE498E00E949D0681EE90E0FC0129
:101B10008081882F90E088709927892B89F18091A6
:101B20002E1D8F5F80932E1D10923B1D84E290E04E
:101B3000FC01208184E290E02061FC01208384E2AA
:101B400090E0FC01208184E290E02062FC0120838F
:101B50008BE290E0FC0120818BE290E02F7EFC0183
:101B6000208381EE90E0FC01208181EE90E0277FD0
:101B7000FC0120830E94110C81E698E00E949D06E2
:101B800081EE90E0FC018081882F90E080719927A0
:101B9000892BB1F082EE90E0FC01208182EE90E092
:101BA0002F7EFC01208381EE90E0FC01208181EEFC
:101BB00090E02F7EFC01208389E798E00E949D063B
:101BC0000000DF91CF91FF91EF91BF91AF919F9175
:101BD0008F917F916F915F914F913F912F910F90D6
:101BE0000BBE0F900FBE0F901F9018951F920F9273
:101BF0000FB60F9211240BB60F922F933F934F9372
:101C00005F936F937F938F939F93AF93BF93EF9364
:101C1000FF93CF93DF9300D0CDB7DEB781E998E093
:101C20000E949D0684EF90E0FC01808180933A1D24
:101C300084EF90E0FC0180818A8387E0898319C06A
:101C40008A81882F90E02981222F30E002C095956B
:101C500087952A95E2F781709927892B51F089EEB3
:101C600090E029812770FC01208380EF90E0FC0147
:101C7000108289819FEF980F9983882309F70000CC
:101C80000F900F90DF91CF91FF91EF91BF91AF91A6
:101C90009F918F917F916F915F914F913F912F9184
:101CA0000F900BBE0F900FBE0F901F901895CF9303
:101CB000DF93CDB7DEB788EE90E0FC01208188EE9F
:101CC00090E02E7FFC01208381E090E09093351D11
:101CD0008093341D31C088EE90E0FC018081882F14
:101CE00090E081709927892B49F09091321D809165
:101CF000331D890F8093321D81E025C088EE90E06E
:101D0000FC018081882F90E084709927892B59F0FD
:101D100088EE90E0FC01208188EE90E02B7FFC01B2
:101D2000208380E010C08091341D9091351D019674
:101D30009093351D8093341D8091341D9091351DF5
:101D4000892B49F680E0DF91CF910895CF93DF93FF
:101D5000CDB7DEB78091331D882351F00E94570E16
:101D6000882321F01092331D81E003C080E001C080
:101D700081E0DF91CF910895CF93DF93CDB7DEB7A8
:101D80002B970FB6F894DEBF0FBECDBF9F838E8317
:101D900068875A8749872B870E942401DC01CB0181
:101DA00089839A83AB83BC838FEF9FEFDC018093A1
:101DB000361D9093371DA093381DB093391D81E0D7
:101DC0008D8385E290E0FC01208185E290E0206136
:101DD000FC01208349855A858E819F812B856885EA
:101DE0000E94350F8823D9F00E94A60E982F81E01B
:101DF0008927882339F189819A81AB81BC81BC0113
:101E0000CD010E946701DC01CB018093361D9093C8
:101E1000371DA093381DB093391D1D8213C08981D1
:101E20009A81AB81BC81BC01CD010E946701DC01BC
:101E3000CB018093361D9093371DA093381DB0932E
:101E4000391D1D8285E290E0FC01208185E290E051
:101E50002F7EFC0120838D812B960FB6F894DEBF78
:101E60000FBECDBFDF91CF910895CF93DF93CDB754
:101E7000DEB729970FB6F894DEBF0FBECDBF9D83A6
:101E80008C836E8358874F83298780912E1D8230E3
:101E900019F481E08093471E8F819885FC01808131
:101EA0009985F92FF81B8F2F89838E818A839981D9
:101EB0008E81891718F48E8189831BC089818823BC
:101EC000C1F48091331D8823A1F00E94570E88230E
:101ED00021F01092331D81E066C01092331D8F8176
:101EE00098852985FC01208381E080933B1D80E05B
:101EF0005AC088EE90E0FC018081882F90E08170CC
:101F00009927892B19F01092331D3CC08F81988539
:101F10002985FC01208381E080933B1D80E043C044
:101F20008C819D819C012F5F3F4F3D832C8321EF4E
:101F300030E0FC018081F90180838091311D8F5F49
:101F40008093311D8091331D8F5F8093331D90915D
:101F5000331D81E0983008F480E08B838B818823E7
:101F600089F00E94570E882319F01092331D0AC081
:101F70008F8198852985FC01208381E080933B1D1A
:101F800080E011C089819FEF980F9983882341F6E3
:101F90002A818F819885FC018081280F8F81988507
:101FA000FC01208381E029960FB6F894DEBF0FBEB6
:101FB000CDBFDF91CF910895CF93DF9300D01F92D3
:101FC000CDB7DEB79A8389836B8382EF90E0FC0103
:101FD00080819B81981791F085EA98E00E949D0688
:101FE0000DC021EF30E089819A81AC014F5F5F4FD6
:101FF0005A834983F9012081FC0120838B819FEF63
:10200000980F9B83882369F700000F900F900F9023
:10201000DF91CF910895CF93DF931F92CDB7DEB7B5
:10202000898388EE90E0FC018081882F90E08170A8
:102030009927892B91F188EE90E0FC01208188EEB0
:1020400090E02E7FFC0120838981882321F181E0AB
:1020500090E09093351D8093341D15C088EE90E07C
:10206000FC018081882F90E081709927892B11F0E5
:1020700081E017C08091341D9091351D0196909399
:10208000351D8093341D8091341D9091351D892B11
:1020900029F780E006C081E004C081E080933B1D09
:1020A00080E00F90DF91CF910895CF93DF931F923F
:1020B000CDB7DEB7198221C088EE90E0FC018081A7
:1020C000882F90E088709927892B11F081E089830F
:1020D00088EE90E0FC018081882F90E08470992741
:1020E000892B59F088EE90E0FC01208188EE90E089
:1020F0002B7FFC01208381E08983998181E08927FE
:102100008823D1F600000F90DF91CF9108950F93AF
:10211000CF93DF93CDB7DEB7A1970FB6F894DEBFAC
:102120000FBECDBF88A369A340E051E060E070E03E
:1021300087E49DE10E946E161C861D8687E49DE162
:1021400099878887CE0147969B878A87CE014796D5
:1021500068A10E943F0768A187E49DE10E943F07B4
:10216000882309F49EC089E0E7E4FDE1DE011E96C4
:1021700001900D928A95E1F78A859B8549E050E0B0
:1021800067E47DE10E94651688859985FC01908150
:102190008D85890F8D8719821A8288859985FC0122
:1021A0008081282F30E0C901880F991F880F991F5F
:1021B000880F991F820F931F28853985820F931FDF
:1021C0009D838C8352C08C819D81FC0190818D8583
:1021D000890F8D878C819D81FC018081282F30E0C3
:1021E000C901880F991F880F991F880F991F820FA7
:1021F000931F2C813D81820F931F9D838C838C8143
:102200009D819F838E8381E08B8329C08E819F81F6
:102210000B812A81498168A10E944D088823E1F041
:102220008E819F81FC0190818D85890F8D878E81A4
:102230009F81FC018081282F30E0C901880F991F00
:10224000880F991F880F991F821B930B2E813F8146
:10225000820F931F9F838E838B818F5F8B838B81F4
:102260008730A0F28A818F5F8A838C819D812A8149
:10227000498168A10E94DB07882309F0A4CF8981E6
:102280008F5F89838A81882309F086CF3D85CE01BF
:102290000C9629A1AC01632F87E49DE10E94BC0E3E
:1022A00001C080E0A1960FB6F894DEBF0FBECDBF8F
:1022B000DF91CF910F910895CF93DF93CDB7DEB724
:1022C000A1970FB6F894DEBF0FBECDBF89EE90E0A8
:1022D000FC011082CE01039668E00E94DC0F8C8125
:1022E000873049F088EE90E0FC01208188EE90E094
:1022F000277FFC012083CE0103960E94DA058B81A3
:10230000882F90E08076992780349105B1F488E198
:1023100099E00E949D06CE0103960E94680B89EE0B
:1023200090E0FC01108288EE90E0FC01208188EEB4
:1023300090E02E7FFC01208394C48B81882F90E055
:1023400080769927892B09F07FC48C81882F90E0B3
:10235000092E000CAA0BBB0B8D309105A105B10510
:1023600008F064C489549E4EFC010C945C16C411A0
:10237000B4121616B4121616C51386151C1433148F
:102380006814BB140F15781585E399E00E949D062B
:102390008D819E81892B21F080E599E00E949D0628
:1023A00089859A85029721F086EB99E00E949D0627
:1023B0008B81882F90E08138910509F448C08238DC
:1023C000910509F45BC08038910509F0AFC08F8199
:1023D0009885892B21F08DE19AE00E949D068091DD
:1023E0002F1D882371F483E89AE00E949D068BEEEE
:1023F00090E0FC0120818BEE90E02062FC012083C4
:1024000030C420912F1DCE010B96622F0E943F07F2
:102410008A89882F90E080749927892B19F081E0B0
:10242000898301C019828A89882F90E08072992758
:10243000892B39F08091301D882319F089818260C1
:10244000898381EF90E02981FC0120837DC0809108
:102450002F1D882371F483EC9AE00E949D068BEE79
:1024600090E0FC0120818BEE90E02062FC01208353
:10247000F8C381EF90E0FC01108266C0CE010396A4
:1024800004960196FC018081882321F086E09BE080
:102490000E949D06CE0103960496FC0180818F77F1
:1024A00089838981873070F083E79BE00E949D06D5
:1024B0008BEE90E0FC0120818BEE90E02062FC012D
:1024C0002083CFC380912F1D882389F4898188239D
:1024D00071F08EEA9BE00E949D068BEE90E0FC017D
:1024E00020818BEE90E02062FC012083BAC389EE4C
:1024F00090E029812770FC0120838BEE90E0FC01A5
:102500008081882F90E080729927892B31F081EFAC
:1025100090E021E0FC01208304C081EF90E0FC0109
:10252000108289EE90E0FC0110820EC082EF9BE0E9
:102530000E949D068BEE90E0FC0120818BEE90E0E6
:102540002062FC0120838DC381EF90E0FC011082AA
:1025500088EE90E0FC01208188EE90E02E7FFC0167
:1025600020830E9455107DC385E19CE00E949D065A
:1025700089859A85892B21F087E39CE00E949D063E
:102580008B81882F90E08130910509F450C0823012
:10259000910509F45AC0892B09F0E5C08BE290E05F
:1025A000FC0120818BE290E02F77FC0120838F815A
:1025B0009885892B21F08DE19AE00E949D068D81FE
:1025C0009E81019771F08EE99CE00E949D068BEE42
:1025D00090E0FC0120818BEE90E02062FC012083E2
:1025E00040C38C81813019F41092301DCAC02091F3
:1025F0002F1DCE010B96622F0E943F078A89882FDC
:1026000090E080729927892B71F48AEE9CE00E94F9
:102610009D068BEE90E0FC0120818BEE90E0206225
:10262000FC0120831EC381E08093301DAAC08BE291
:102630009DE00E949D068BEE90E0FC0120818BEED8
:1026400090E02062FC0120830CC3CE010396049627
:102650000196FC018081882321F080E79DE00E94A3
:102660009D068D819E81892B71F08BED9DE00E94EE
:102670009D068BEE90E0FC0120818BEE90E02062C5
:10268000FC012083EEC2CE0103960496FC018081FA
:102690008F7789838981873070F089E29EE00E947C
:1026A0009D068BEE90E0FC0120818BEE90E0206295
:1026B000FC012083D6C280912F1D882389F4898153
:1026C000882371F08BE69EE00E949D068BEE90E0E1
:1026D000FC0120818BEE90E02062FC012083C1C2CE
:1026E00089EE90E029812770FC0120838C81813064
:1026F00061F58BEE90E0FC0120818BEE90E0206193
:10270000FC0120838AEE90E0FC018081482F8981C2
:10271000282F30E081E090E002C0880F991F2A95B1
:10272000E2F7242F282B8AEE90E0FC0120838AEE2A
:1027300090E0FC0110828BEE90E0FC0120818BEE9A
:1027400090E02860FC01208309C08BEE90E0FC0142
:1027500020818BEE90E02062FC01208389EE90E0E6
:10276000FC0110820EC084EB9EE00E949D068BEE61
:1027700090E0FC0120818BEE90E02062FC01208340
:1027800070C280E00E940B106CC28CED9EE00E9433
:102790009D06CE0103960296FC018081882391F468
:1027A00080912F1D882371F088EF9EE00E949D0686
:1027B0008BEE90E0FC0120818BEE90E02062FC012A
:1027C00020834FC28B81882321F08AE39FE00E94FF
:1027D0009D06CE01039602960196FC018081882316
:1027E00021F087EA9FE00E949D068F819885892BC2
:1027F00021F08DE19AE00E949D0689859A85892BBA
:1028000021F087E39CE00E949D06CE01039602968C
:10281000FC01208183EE90E02F77FC01208381E092
:102820000E940B1083EE90E0FC01208183EE90E08B
:102830002068FC01208315C282E190E10E949D0680
:102840008BEE90E0FC0120818BEE90E02062FC0199
:10285000208388EE90E0FC01208188EE90E0277FC5
:10286000FC012083FEC181E590E10E949D068B81E1
:10287000803821F083E790E10E949D068D819E8142
:10288000892B21F080E599E00E949D068F81988533
:10289000892B21F08DE19AE00E949D0689859A8519
:1028A000019721F082EE90E10E949D0681EF90E079
:1028B00020912F1DFC01208388EE90E0FC012081F7
:1028C00088EE90E02E7FFC0120830E945510C9C144
:1028D00089E491E10E949D068B81882321F08AE39F
:1028E0009FE00E949D06CE01039602960196FC0190
:1028F0008081882321F087EA9FE00E949D068F81D6
:102900009885892B21F08DE19AE00E949D068985AA
:102910009A85892B21F087E39CE00E949D06CE01D9
:1029200003960296FC0180810E94010A882389F0A7
:1029300089EE90E0FC01108280E00E940B108BE297
:1029400090E0FC0120818BE290E02068FC01208374
:1029500088C18BE691E10E949D0689EE90E0FC0122
:1029600010828BEE90E0FC0120818BEE90E02062E3
:10297000FC01208376C18FEA91E10E949D0680913F
:102980002F1D882371F48DEC91E10E949D068BEE42
:1029900090E0FC0120818BEE90E02062FC0120831E
:1029A00060C18B81813821F089E092E10E949D060F
:1029B0008D819E81892B21F080E599E00E949D0602
:1029C000CE01039604960196FC018081882321F0B4
:1029D00080E79DE00E949D0689859A85019721F0F8
:1029E00082EE90E10E949D06CE0103960496FC01C2
:1029F0008081282F30E081EF90E020503F4FF90197
:102A00002081FC01208388EE90E0FC01208188EE8B
:102A100090E02E7FFC0120830E94551022C188E7A0
:102A200092E10E949D0680912F1D882371F486E912
:102A300092E10E949D068BEE90E0FC0120818BEEDE
:102A400090E02062FC0120830CC18B81813021F059
:102A500082ED92E10E949D06CE01039602960196B8
:102A6000FC018081882321F087EA9FE00E949D0677
:102A7000CE01039604960196FC018081882321F003
:102A800080E79DE00E949D0689859A85892B21F02B
:102A900087E39CE00E949D06CE0103960296FC010E
:102AA0002081CE0103960496FC01908180912F1D18
:102AB000422F692F0E94560A882341F089EE90E048
:102AC000FC01108280E00E940B10CBC089EE90E0E8
:102AD000FC0110828FE393E10E949D068BEE90E053
:102AE000FC0120818BEE90E02062FC012083B9C0C4
:102AF00081E893E10E949D068BEE90E0FC0120812D
:102B00008BEE90E02062FC012083ABC08CEA93E165
:102B10000E949D068B81803821F083E790E10E941E
:102B20009D06CE0103960696FC0180818A8319A238
:102B3000CE01039606960196FC018081882311F050
:102B40008FEF8A83CE01039602960196FC01808165
:102B5000882F90E08230910569F18330910509F466
:102B600044C0019709F05AC08F819885892B21F0C4
:102B70008DE19AE00E949D06CE0103960296FC012B
:102B80008081882321F08BEC93E10E949D06CE0189
:102B90000B960E94E406CE010B960E940B053B8526
:102BA000AE014F5D5F4FCE010B962A81632F0E94CD
:102BB000BC0E3BC0CE0103960296FC0180816A8167
:102BC0000E948710982F81E08927882369F186E386
:102BD00094E10E949D068BEE90E0FC0120818BEE3B
:102BE00090E02062FC0120833CC0CE010396029657
:102BF000FC012081CE010B96622F0E94E008CE01DD
:102C00000B960E94AE053B85AE014F5D5F4FCE0136
:102C10000B962A81632F0E94BC0E07C084E894E1C2
:102C20000E949D0600001DC000001BC082EB94E1C5
:102C30000E949D068BEE90E0FC0120818BEE90E0DF
:102C40002062FC0120830DC08EED94E10E949D0660
:102C50008BEE90E0FC0120818BEE90E02062FC0185
:102C60002083A1960FB6F894DEBF0FBECDBFDF91D3
:102C7000CF910895A1E21A2EAA1BBB1BFD010DC026
:102C8000AA1FBB1FEE1FFF1FA217B307E407F5071C
:102C900020F0A21BB30BE40BF50B661F771F881FF8
:102CA000991F1A9469F760957095809590959B018E
:102CB000AC01BD01CF010895EE0FFF1F0024001CE1
:102CC0000BBE0790F691E02D0994FB01DC0102C0D8
:102CD00001900D9241505040D8F70895DC0101C099
:0E2CE0006D9341505040E0F70895F894FFCFF7
:102CEE00FFFFFFFF4461714465763A20556E7375A0
:102CFE0070706F727465642073616D706C696E674D
:102D0E002072617465210D0A004461714465763A42
:102D1E0020556E737570706F72746564207573656F
:102D2E007220636F6D6D616E64210D0A0055534202
:102D3E00204465766963652D4465736372697074AA
:102D4E006F723A000D0A2020642D3E624C656E674C
:102D5E0074683A20000D0A2020642D3E624465738B
:102D6E0063726970746F72547970653A20000D0A3F
:102D7E002020642D3E6263645553423A20000D0AB2
:102D8E002020642D3E62446576696365436C6173F1
:102D9E00733A20000D0A2020642D3E624465766948
:102DAE006365537562436C6173733A20000D0A209C
:102DBE0020642D3E6244657669636550726F746F50
:102DCE00636F6C6C3A20000D0A2020642D3E624D1C
:102DDE0061785061636B657453697A65303A20008F
:102DEE000D0A2020642D3E696456656E646F723A3A
:102DFE0020000D0A2020642D3E696450726F6475A8
:102E0E0063743A20000D0A2020642D3E62636444F0
:102E1E0065766963653A20000D0A2020642D3E69AF
:102E2E004D616E7566616374757265723A20000D40
:102E3E000A2020642D3E6950726F647563743A20C7
:102E4E00000D0A2020642D3E6953657269616C4E37
:102E5E00756D6265723A20000D0A2020642D3E6267
:102E6E004E756D436F6E66696775726174696F6ECC
:102E7E00733A2000202D55534220436F6E666967CA
:102E8E0075726174696F6E2D4465736372697074C7
:102E9E006F723A000D0A20202020632D3E624C6591
:102EAE006E6774683A20000D0A20202020632D3EA4
:102EBE006244657363726970746F72547970653AA7
:102ECE0020000D0A20202020632D3E77546F746160
:102EDE006C4C656E6774683A20000D0A2020202025
:102EEE00632D3E624E756D496E74657266616365E3
:102EFE00733A20000D0A20202020632D3E62436F7E
:102F0E006E66696775726174696F6E56616C756510
:102F1E003A20000D0A20202020632D3E69436F6E5B
:102F2E0066696775726174696F6E3A20000D0A20CA
:102F3E00202020632D3E626D417474726962757437
:102F4E0065733A20000D0A20202020632D3E4D612E
:102F5E0078506F7765723A20002020202D5553420D
:102F6E0020496E746572666163652D446573637284
:102F7E006970746F723A000D0A202020202020699B
:102F8E002D3E624C656E6774683A20000D0A202053
:102F9E0020202020692D3E6244657363726970742F
:102FAE006F72547970653A20000D0A20202020207F
:102FBE0020692D3E62496E746572666163654E7559
:102FCE006D6265723A20000D0A20202020202069B3
:102FDE002D3E62416C7465726E61746553657474D6
:102FEE00696E673A20000D0A202020202020692DCE
:102FFE003E624E756D456E64706F696E74733A20E5
:10300E00000D0A202020202020692D3E62496E747A
:10301E00657266616365436C6173733A20000D0AD5
:10302E00202020202020692D3E62496E7465726634
:10303E00616365537562436C6173733A20000D0AC8
:10304E00202020202020692D3E62496E7465726614
:10305E0061636550726F746F636F6C3A20000D0A76
:10306E00202020202020692D3E69496E74657266ED
:10307E006163653A200020202020202D55534220E8
:10308E00456E64706F696E742D44657363726970FA
:10309E00746F723A000D0A20202020202020206517
:1030AE002D3E624C656E6774683A20000D0A202032
:1030BE00202020202020652D3E62446573637269B6
:1030CE0070746F72547970653A20000D0A202020BA
:1030DE002020202020652D3E62456E64706F696E43
:1030EE0074416464726573733A20000D0A202020C7
:1030FE002020202020652D3E626D4174747269621D
:10310E00757465733A20000D0A202020202020209F
:10311E0020652D3E774D61785061636B6574536900
:10312E007A653A20000D0A202020202020202065DC
:10313E002D3E62496E74657276616C3A200055536D
:10314E004220537472696E672D44657363726970A1
:10315E00746F723A0D0A0053657475702052657162
:10316E00756573743A0020200D0A626D5265717593
:10317E00657374547970653A200020200D0A6252EE
:10318E006571756573743A20202020202000202060
:10319E000D0A7756616C75653A202020202020207C
:1031AE00200020200D0A77496E6465783A20202091
:1031BE0020202020200020200D0A774C656E677499
:1031CE00683A202020202020200055736244657626
:1031DE00536574436F6E66696775726174696F6E5D
:1031EE0028293A20636F6E66696775726174696F1C
:1031FE006E20646F6573206E6F74206578697374CA
:10320E00210D0A00557362446576536574496E74D8
:10321E0065726661636528293A2063616C6C65642A
:10322E002066726F6D20756E636F6E66696775725C
:10323E006564202861646472657373656429207304
:10324E0074617465210D0A00557362446576536589
:10325E0074496E7465726661636528293A20696ED9
:10326E0074657266616365206E6F7420737570701D
:10327E006F72746564210D0A00557362446576534E
:10328E006574496E7465726661636528293A204DCE
:10329E00756C7469706C6520696E746572666163B5
:1032AE0065732077697468206D6F7265207468612C
:1032BE006E206F6E6520616C7465726E6174652030
:1032CE0073657474696E67203D3E204649464F20F3
:1032DE006D656D6F727920636F6E666C6963747362
:1032EE00206D6179206F63637572210D0A002121B3
:1032FE0021205375636365737366756C20736574F3
:10330E0020757020455031210D0A002121212020E9
:10331E005365747570206F66204550312066616963
:10332E006C6564210D0A00212121205375636365AC
:10333E00737366756C2073657420757020455032FA
:10334E00210D0A0021212120205365747570206FF4
:10335E006620455032206661696C6564210D0A0055
:10336E00212121205375636365737366756C207319
:10337E00657420757020455033210D0A00212121DE
:10338E0020205365747570206F662045503320667B
:10339E0061696C6564210D0A007E7E7E2045503089
:1033AE0020616C726561647920656E61626C656422
:1033BE00210D0A007E7E7E2053657474696E67202F
:1033CE007570204550302E2E2E0D0A007E7E7E20EA
:1033DE005375636365737366756C207365742075BE
:1033EE007020455030210D0A007E7E7E20205365D0
:1033FE00747570206F6620455030206661696C656B
:10340E0064210D0A00495352285553425F47454ED9
:10341E005F76656374290D0A003D3D3D2049445495
:10342E00495F466C61675365740D0A003D3D3D2052
:10343E005642555354495F466C61675365740D0A85
:10344E00003D3D3D20456E644F6652657365744682
:10345E006C61675365740D0A003D3D3D2057616BED
:10346E006575704350555F466C61675365740D0A00
:10347E0000495352285553425F434F4D5F76656363
:10348E0074290D0A004572726F723A2028557362C4
:10349E0044657647657442797465436F756E744CF6
:1034AE006F772829203D3D206E29203D3D2030207C
:1034BE0028443A2F414C41494E2F415439305553EF
:1034CE00422F50726F6A656374732F4154393055B1
:1034DE0053422F417439305573624D504C41422E38
:1034EE00582F7372632F7573625F72657175657392
:1034FE0074732E63290D0A007C52656365697665C7
:10350E00642055736256656E646F7252657175658F
:10351E0073740D0A007C5553425F53746444657690
:10352E005265714745545F5354415455530D0A002B
:10353E004572726F723A20287265712E7756616CE1
:10354E007565203D3D203029203D3D20302028440A
:10355E003A2F414C41494E2F415439305553422F49
:10356E0050726F6A656374732F41543930555342EC
:10357E002F417439305573624D504C41422E582FA5
:10358E007372632F7573625F726571756573747391
:10359E002E63290D0A004572726F723A20287265E9
:1035AE00712E774C656E677468203D3D2032292060
:1035BE003D3D20302028443A2F414C41494E2F4169
:1035CE005439305553422F50726F6A656374732F9E
:1035DE00415439305553422F417439305573624D31
:1035EE00504C41422E582F7372632F7573625F7267
:1035FE00657175657374732E63290D0A00457272B9
:10360E006F723A20287265712E77496E6465782044
:10361E003D3D203029203D3D20302028443A2F4189
:10362E004C41494E2F415439305553422F50726FF1
:10363E006A656374732F415439305553422F417468
:10364E0039305573624D504C41422E582F73726370
:10365E002F7573625F72657175657374732E63294E
:10366E000D0A007C4572726F723A205553425F53B9
:10367E0074644465765265714745545F53544154A2
:10368E0055532064657669636520696E20756E6397
:10369E006F6E6669677572656420737461746521F7
:1036AE000D0A007C4572726F723A205553425F5379
:1036BE0074644465765265714745545F5354415462
:1036CE00555320696E7465726661636520696E205C
:1036DE00756E636F6E66696775726564207374616B
:1036EE007465210D0A004572726F723A2028284DBA
:1036FE005342287265712E77496E64657829203D94
:10370E003D20302929203D3D20302028443A2F41AC
:10371E004C41494E2F415439305553422F50726F00
:10372E006A656374732F415439305553422F417477
:10373E0039305573624D504C41422E582F7372637F
:10374E002F7573625F72657175657374732E63295D
:10375E000D0A007C4572726F723A205553425F53C8
:10376E0074644465765265714745545F53544154B1
:10377E00555320656E64706F696E7420646F657347
:10378E00206E6F74206578697374210D0A007C4574
:10379E0072726F723A205553425F53746444657669
:1037AE005265714745545F53544154555320666FCB
:1037BE0072206570203E203020696E20756E636F1A
:1037CE006E66696775726564207374617465210D28
:1037DE000A007C4572726F723A205553425F5374E1
:1037EE00644465765265714745545F535441545550
:1037FE0053210D0A007C5553425F53746444657621
:10380E00526571434C4541522F5345545F464541D5
:10381E00545552450D0A004572726F723A20287245
:10382E0065712E774C656E677468203D3D2030299A
:10383E00203D3D20302028443A2F414C41494E2F07
:10384E00415439305553422F50726F6A6563747309
:10385E002F415439305553422F41743930557362CC
:10386E004D504C41422E582F7372632F7573625F09
:10387E0072657175657374732E63290D0A007C452C
:10388E0072726F723A205553425F53746444657678
:10389E005265715345542F434C4541525F46454145
:1038AE00545552452077726F6E6720666561747548
:1038BE0072652073656C6563746F7220666F72201B
:1038CE00646576696365210D0A007C4572726F72BC
:1038DE003A205553425F5374644465765265715372
:1038EE0045545F464541545552452C2052656D6FE7
:1038FE0074652D57616B657570206E6F74207375CE
:10390E0070706F72746564210D0A007C4572726F5F
:10391E00723A205553425F53746444657652657112
:10392E005345542F434C4541525F464541545552E1
:10393E0045207769746820726563656976657220C3
:10394E003D3D20696E74657266616365210D0A00E6
:10395E004572726F723A20284D5342287265712E4D
:10396E0077496E64657829203D3D203029203D3D04
:10397E0020302028443A2F414C41494E2F41543992
:10398E00305553422F50726F6A656374732F4154D2
:10399E0039305553422F417439305573624D504C66
:1039AE0041422E582F7372632F7573625F72657169
:1039BE0075657374732E63290D0A007C4572726FE0
:1039CE00723A205553425F53746444657652657162
:1039DE005345542F434C4541525F46454154555231
:1039EE00452077726F6E672066656174757265200B
:1039FE0073656C6563746F7220666F7220656E649A
:103A0E00706F696E74210D0A007C4572726F723A86
:103A1E00205553425F537464446576526571534525
:103A2E00542F434C4541525F464541545552452013
:103A3E00656E64706F696E7420646F6573206E6F4F
:103A4E0074206578697374210D0A007C4572726F5B
:103A5E00723A205553425F537464446576526571D1
:103A6E00436C656172536574466561747572652049
:103A7E00666F72206570203E203020696E20756E54
:103A8E00636F6E66696775726564207374617465C1
:103A9E00210D0A007C4572726F723A205553425FB7
:103AAE00537464446576526571436C6561725365F7
:103ABE007446656174757265210D0A007C5553421A
:103ACE005F5374644465765265715345545F414447
:103ADE0044524553530D0A007C4572726F723A2060
:103AEE005553425F53746444657652657153455421
:103AFE005F4144445245535320616464726573734D
:103B0E00203020696E20636F6E666967757265641A
:103B1E00207374617465210D0A004572726F723ADA
:103B2E0020287265712E626D5265717565737454BD
:103B3E00797065203D3D203029203D3D20302028E4
:103B4E00443A2F414C41494E2F415439305553423E
:103B5E002F50726F6A656374732F41543930555309
:103B6E00422F417439305573624D504C41422E589C
:103B7E002F7372632F7573625F72657175657374DF
:103B8E00732E63290D0A004572726F723A20284D0A
:103B9E005342287265712E7756616C756529203DEA
:103BAE003D203029203D3D20302028443A2F414CE5
:103BBE0041494E2F415439305553422F50726F6A3E
:103BCE00656374732F415439305553422F41743904
:103BDE00305573624D504C41422E582F7372632FE5
:103BEE007573625F72657175657374732E63290DDB
:103BFE000A007C4572726F723A205553425F5374BD
:103C0E00644465765265715345545F44455343523F
:103C1E004950544F522063757272656E746C7920E0
:103C2E006E6F7420737570706F72746564210D0AF7
:103C3E00007C5553425F53746444657652657147F8
:103C4E0045545F434F4E46494755524154494F4E96
:103C5E000D0A004572726F723A20287265712E62DB
:103C6E006D5265717565737454797065203D3D2094
:103C7E0031323829203D3D20302028443A2F414C06
:103C8E0041494E2F415439305553422F50726F6A6D
:103C9E00656374732F415439305553422F41743933
:103CAE00305573624D504C41422E582F7372632F14
:103CBE007573625F72657175657374732E63290D0A
:103CCE000A004572726F723A20287265712E774C17
:103CDE00656E677468203D3D203129203D3D2030C2
:103CEE002028443A2F414C41494E2F4154393055EA
:103CFE0053422F50726F6A656374732F415439307B
:103D0E005553422F417439305573624D504C4142D8
:103D1E002E582F7372632F7573625F72657175659E
:103D2E007374732E63290D0A007C5553425F5374CE
:103D3E00644465765265715345545F434F4E464910
:103D4E004755524154494F4E0D0A007C4572726FD1
:103D5E00723A205553425F537464446576526571CE
:103D6E005345545F434F4E46494755524154494F70
:103D7E004E20756E737570706F7274656420636F0C
:103D8E006E66696775726174696F6E210D0A007CCB
:103D9E005553425F5374644465765265714745547A
:103DAE005F494E544552464143450D0A007C4572CB
:103DBE00726F723A205553425F5374644465765263
:103DCE0065714745545F494E54455246414345201F
:103DDE00696E20756E636F6E6669677572656420B5
:103DEE007374617465210D0A004572726F723A2008
:103DFE00287265712E626D52657175657374547992
:103E0E007065203D3D2031323929203D3D20302046
:103E1E0028443A2F414C41494E2F41543930555385
:103E2E00422F50726F6A656374732F415439305547
:103E3E0053422F417439305573624D504C41422ECE
:103E4E00582F7372632F7573625F72657175657328
:103E5E0074732E63290D0A007C5553425F537464AC
:103E6E004465765265715345545F494E54455246EA
:103E7E004143450D0A007C4572726F723A205553CC
:103E8E00425F5374644465765265715345545F497D
:103E9E004E5445524641434520696E20756E636F00
:103EAE006E66696775726564207374617465210D41
:103EBE000A004572726F723A20287265712E626D19
:103ECE005265717565737454797065203D3D20316E
:103EDE0029203D3D20302028443A2F414C41494E67
:103EEE002F415439305553422F50726F6A656374A7
:103EFE00732F415439305553422F41743930557315
:103F0E00624D504C41422E582F7372632F7573625F
:103F1E005F72657175657374732E63290D0A007C6B
:103F2E004572726F723A205553425F537464446502
:103F3E00765265715345545F494E5445524641433E
:103F4E004520616C742E2073657474696E672064ED
:103F5E006F6573206E6F74206578697374210D0A16
:103F6E00007C5553425F53746444657652657153B9
:103F7E00594E43485F4652414D45206E6F74207333
:103F8E007570706F72746564210D0A007C55534212
:103F9E005F5374644465765265714745545F44457A
:103FAE005343524950544F520D0A004572726F726C
:103FBE003A20284C5342287265712E7756616C75E3
:103FCE006529203D3D203029203D3D2030202844CC
:103FDE003A2F414C41494E2F415439305553422FBF
:103FEE0050726F6A656374732F4154393055534262
:103FFE002F417439305573624D504C41422E582F1B
:10400E007372632F7573625F726571756573747306
:10401E002E63290D0A007C4572726F723A20555339
:10402E00425F5374644465765265714745545F44EC
:10403E00455343524950544F523A2063616E206E9D
:10404E006F742073656E7420436F6E666967757248
:10405E006174696F6E2D44657363726970746F72EB
:10406E00210D0A007C5553425F53746444657652A9
:10407E0065714745545F44455343524950544F521E
:10408E003A20556E6B6E6F776E2074797065210DC8
:10409E000A007C526563656976656420756E73757A
:1040AE0070706F72746564205573625374616E64C0
:1040BE0061726452657175657374210D0A007C55C9
:1040CE006E737570706F72746564206E6F6E73743C
:1040DE00616E646172642072657175657374210D11
:1040EE000A00010000003200000001000000000084
:1040FE0000000000000000000000030000000000AF
:0A410E0000000000000000000000A7
:00000001FF
